{
  "contractName": "Optimizer",
  "abi": [
    {
      "inputs": [
        {
          "internalType": "address",
          "name": "_LP",
          "type": "address"
        },
        {
          "internalType": "address",
          "name": "_share",
          "type": "address"
        },
        {
          "internalType": "address",
          "name": "_dollar",
          "type": "address"
        },
        {
          "internalType": "address",
          "name": "_shareRewardPool",
          "type": "address"
        },
        {
          "internalType": "address",
          "name": "_boardroom",
          "type": "address"
        }
      ],
      "stateMutability": "nonpayable",
      "type": "constructor"
    },
    {
      "anonymous": false,
      "inputs": [
        {
          "indexed": true,
          "internalType": "address",
          "name": "previousOwner",
          "type": "address"
        },
        {
          "indexed": true,
          "internalType": "address",
          "name": "newOwner",
          "type": "address"
        }
      ],
      "name": "OwnershipTransferred",
      "type": "event"
    },
    {
      "inputs": [],
      "name": "BUSD",
      "outputs": [
        {
          "internalType": "address",
          "name": "",
          "type": "address"
        }
      ],
      "stateMutability": "view",
      "type": "function",
      "constant": true
    },
    {
      "inputs": [
        {
          "internalType": "uint256",
          "name": "",
          "type": "uint256"
        }
      ],
      "name": "BUSDToDollarRoute",
      "outputs": [
        {
          "internalType": "address",
          "name": "",
          "type": "address"
        }
      ],
      "stateMutability": "view",
      "type": "function",
      "constant": true
    },
    {
      "inputs": [],
      "name": "LP",
      "outputs": [
        {
          "internalType": "address",
          "name": "",
          "type": "address"
        }
      ],
      "stateMutability": "view",
      "type": "function",
      "constant": true
    },
    {
      "inputs": [],
      "name": "LpStaked",
      "outputs": [
        {
          "internalType": "uint256",
          "name": "",
          "type": "uint256"
        }
      ],
      "stateMutability": "view",
      "type": "function",
      "constant": true
    },
    {
      "inputs": [],
      "name": "boardroomAddr",
      "outputs": [
        {
          "internalType": "address",
          "name": "",
          "type": "address"
        }
      ],
      "stateMutability": "view",
      "type": "function",
      "constant": true
    },
    {
      "inputs": [],
      "name": "dollar",
      "outputs": [
        {
          "internalType": "address",
          "name": "",
          "type": "address"
        }
      ],
      "stateMutability": "view",
      "type": "function",
      "constant": true
    },
    {
      "inputs": [
        {
          "internalType": "uint256",
          "name": "",
          "type": "uint256"
        }
      ],
      "name": "dollarToBUSDRoute",
      "outputs": [
        {
          "internalType": "address",
          "name": "",
          "type": "address"
        }
      ],
      "stateMutability": "view",
      "type": "function",
      "constant": true
    },
    {
      "inputs": [],
      "name": "owner",
      "outputs": [
        {
          "internalType": "address",
          "name": "",
          "type": "address"
        }
      ],
      "stateMutability": "view",
      "type": "function",
      "constant": true
    },
    {
      "inputs": [],
      "name": "pancakeRouter",
      "outputs": [
        {
          "internalType": "address",
          "name": "",
          "type": "address"
        }
      ],
      "stateMutability": "view",
      "type": "function",
      "constant": true
    },
    {
      "inputs": [],
      "name": "renounceOwnership",
      "outputs": [],
      "stateMutability": "nonpayable",
      "type": "function"
    },
    {
      "inputs": [],
      "name": "share",
      "outputs": [
        {
          "internalType": "address",
          "name": "",
          "type": "address"
        }
      ],
      "stateMutability": "view",
      "type": "function",
      "constant": true
    },
    {
      "inputs": [],
      "name": "shareRewardPoolAddr",
      "outputs": [
        {
          "internalType": "address",
          "name": "",
          "type": "address"
        }
      ],
      "stateMutability": "view",
      "type": "function",
      "constant": true
    },
    {
      "inputs": [],
      "name": "shareStaked",
      "outputs": [
        {
          "internalType": "uint256",
          "name": "",
          "type": "uint256"
        }
      ],
      "stateMutability": "view",
      "type": "function",
      "constant": true
    },
    {
      "inputs": [
        {
          "internalType": "address",
          "name": "newOwner",
          "type": "address"
        }
      ],
      "name": "transferOwnership",
      "outputs": [],
      "stateMutability": "nonpayable",
      "type": "function"
    },
    {
      "inputs": [
        {
          "internalType": "uint256",
          "name": "_amount",
          "type": "uint256"
        }
      ],
      "name": "depositLP",
      "outputs": [],
      "stateMutability": "nonpayable",
      "type": "function"
    },
    {
      "inputs": [
        {
          "internalType": "uint256",
          "name": "_amount",
          "type": "uint256"
        }
      ],
      "name": "withdrawLP",
      "outputs": [],
      "stateMutability": "nonpayable",
      "type": "function"
    },
    {
      "inputs": [
        {
          "internalType": "uint256",
          "name": "_amount",
          "type": "uint256"
        }
      ],
      "name": "depositShare",
      "outputs": [],
      "stateMutability": "nonpayable",
      "type": "function"
    },
    {
      "inputs": [],
      "name": "withdrawShare",
      "outputs": [],
      "stateMutability": "nonpayable",
      "type": "function"
    },
    {
      "inputs": [],
      "name": "harvest",
      "outputs": [],
      "stateMutability": "nonpayable",
      "type": "function"
    },
    {
      "inputs": [],
      "name": "exitAvalanche",
      "outputs": [],
      "stateMutability": "nonpayable",
      "type": "function"
    },
    {
      "inputs": [],
      "name": "getPendingRewards",
      "outputs": [
        {
          "internalType": "uint256",
          "name": "",
          "type": "uint256"
        },
        {
          "internalType": "uint256",
          "name": "",
          "type": "uint256"
        }
      ],
      "stateMutability": "view",
      "type": "function",
      "constant": true
    },
    {
      "inputs": [],
      "name": "canClaimDollar",
      "outputs": [
        {
          "internalType": "bool",
          "name": "",
          "type": "bool"
        }
      ],
      "stateMutability": "view",
      "type": "function",
      "constant": true
    },
    {
      "inputs": [],
      "name": "canWithdrawShare",
      "outputs": [
        {
          "internalType": "bool",
          "name": "",
          "type": "bool"
        }
      ],
      "stateMutability": "view",
      "type": "function",
      "constant": true
    }
  ],
  "bytecode": "0x60806040526000600a556000600b553480156200001b57600080fd5b506040516200432138038062004321833981810160405260a08110156200004157600080fd5b81019080805190602001909291908051906020019092919080519060200190929190805190602001909291908051906020019092919050505060006200008c620005d860201b60201c565b9050806000806101000a81548173ffffffffffffffffffffffffffffffffffffffff021916908373ffffffffffffffffffffffffffffffffffffffff1602179055508073ffffffffffffffffffffffffffffffffffffffff16600073ffffffffffffffffffffffffffffffffffffffff167f8be0079c531659141344cd1fd0a4f28419497f9722a3daafe3b4186f6b6457e060405160405180910390a35084600460006101000a81548173ffffffffffffffffffffffffffffffffffffffff021916908373ffffffffffffffffffffffffffffffffffffffff16021790555083600560006101000a81548173ffffffffffffffffffffffffffffffffffffffff021916908373ffffffffffffffffffffffffffffffffffffffff16021790555082600660006101000a81548173ffffffffffffffffffffffffffffffffffffffff021916908373ffffffffffffffffffffffffffffffffffffffff16021790555081600160006101000a81548173ffffffffffffffffffffffffffffffffffffffff021916908373ffffffffffffffffffffffffffffffffffffffff16021790555080600260006101000a81548173ffffffffffffffffffffffffffffffffffffffff021916908373ffffffffffffffffffffffffffffffffffffffff16021790555060405180604001604052808473ffffffffffffffffffffffffffffffffffffffff1673ffffffffffffffffffffffffffffffffffffffff168152602001600760009054906101000a900473ffffffffffffffffffffffffffffffffffffffff1673ffffffffffffffffffffffffffffffffffffffff1673ffffffffffffffffffffffffffffffffffffffff1681525060089060026200031092919062000b72565b506040518060400160405280600760009054906101000a900473ffffffffffffffffffffffffffffffffffffffff1673ffffffffffffffffffffffffffffffffffffffff1673ffffffffffffffffffffffffffffffffffffffff1681526020018473ffffffffffffffffffffffffffffffffffffffff1673ffffffffffffffffffffffffffffffffffffffff168152506009906002620003b292919062000b72565b506200042a600160009054906101000a900473ffffffffffffffffffffffffffffffffffffffff166000600460009054906101000a900473ffffffffffffffffffffffffffffffffffffffff1673ffffffffffffffffffffffffffffffffffffffff16620005e060201b62001f33179092919060201c565b620004c0600160009054906101000a900473ffffffffffffffffffffffffffffffffffffffff167fffffffffffffffffffffffffffffffffffffffffffffffffffffffffffffffff600460009054906101000a900473ffffffffffffffffffffffffffffffffffffffff1673ffffffffffffffffffffffffffffffffffffffff16620005e060201b62001f33179092919060201c565b62000537600260009054906101000a900473ffffffffffffffffffffffffffffffffffffffff166000600560009054906101000a900473ffffffffffffffffffffffffffffffffffffffff1673ffffffffffffffffffffffffffffffffffffffff16620005e060201b62001f33179092919060201c565b620005cd600260009054906101000a900473ffffffffffffffffffffffffffffffffffffffff167fffffffffffffffffffffffffffffffffffffffffffffffffffffffffffffffff600560009054906101000a900473ffffffffffffffffffffffffffffffffffffffff1673ffffffffffffffffffffffffffffffffffffffff16620005e060201b62001f33179092919060201c565b505050505062000c20565b600033905090565b6000811480620006b2575060008373ffffffffffffffffffffffffffffffffffffffff1663dd62ed3e30856040518363ffffffff1660e01b8152600401808373ffffffffffffffffffffffffffffffffffffffff1681526020018273ffffffffffffffffffffffffffffffffffffffff1681526020019250505060206040518083038186803b1580156200067357600080fd5b505afa15801562000688573d6000803e3d6000fd5b505050506040513d60208110156200069f57600080fd5b8101908080519060200190929190505050145b62000709576040517f08c379a0000000000000000000000000000000000000000000000000000000008152600401808060200182810382526036815260200180620042eb6036913960400191505060405180910390fd5b620007ae8363095ea7b360e01b8484604051602401808373ffffffffffffffffffffffffffffffffffffffff16815260200182815260200192505050604051602081830303815290604052907bffffffffffffffffffffffffffffffffffffffffffffffffffffffff19166020820180517bffffffffffffffffffffffffffffffffffffffffffffffffffffffff8381831617835250505050620007b360201b60201c565b505050565b60606200081c826040518060400160405280602081526020017f5361666545524332303a206c6f772d6c6576656c2063616c6c206661696c65648152508573ffffffffffffffffffffffffffffffffffffffff16620008ad60201b620020f8179092919060201c565b9050600081511115620008a8578080602001905160208110156200083f57600080fd5b8101908080519060200190929190505050620008a7576040517f08c379a000000000000000000000000000000000000000000000000000000000815260040180806020018281038252602a815260200180620042c1602a913960400191505060405180910390fd5b5b505050565b6060620008c48484600085620008cd60201b60201c565b90509392505050565b6060824710156200092a576040517f08c379a00000000000000000000000000000000000000000000000000000000081526004018080602001828103825260268152602001806200429b6026913960400191505060405180910390fd5b6200093b8562000a8d60201b60201c565b620009ae576040517f08c379a000000000000000000000000000000000000000000000000000000000815260040180806020018281038252601d8152602001807f416464726573733a2063616c6c20746f206e6f6e2d636f6e747261637400000081525060200191505060405180910390fd5b600060608673ffffffffffffffffffffffffffffffffffffffff1685876040518082805190602001908083835b6020831062000a005780518252602082019150602081019050602083039250620009db565b6001836020036101000a03801982511681845116808217855250505050505090500191505060006040518083038185875af1925050503d806000811462000a64576040519150601f19603f3d011682016040523d82523d6000602084013e62000a69565b606091505b509150915062000a8182828662000aa060201b60201c565b92505050949350505050565b600080823b905060008111915050919050565b6060831562000ab25782905062000b6b565b60008351111562000ac65782518084602001fd5b816040517f08c379a00000000000000000000000000000000000000000000000000000000081526004018080602001828103825283818151815260200191508051906020019080838360005b8381101562000b2f57808201518184015260208101905062000b12565b50505050905090810190601f16801562000b5d5780820380516001836020036101000a031916815260200191505b509250505060405180910390fd5b9392505050565b82805482825590600052602060002090810192821562000bee579160200282015b8281111562000bed5782518260006101000a81548173ffffffffffffffffffffffffffffffffffffffff021916908373ffffffffffffffffffffffffffffffffffffffff1602179055509160200191906001019062000b93565b5b50905062000bfd919062000c01565b5090565b5b8082111562000c1c57600081600090555060010162000c02565b5090565b61366b8062000c306000396000f3fe608060405234801561001057600080fd5b506004361061014d5760003560e01c8063a92627ce116100c3578063e4456ecb1161007c578063e4456ecb14610419578063eb37acfc14610447578063f07f50c114610475578063f2fde38b146104cd578063f302fbba14610511578063fce3f51f1461051b5761014d565b8063a92627ce146102d2578063b6fccf8a1461032a578063bc445eec1461035e578063c21ebd071461038c578063cb2c274f146103c0578063d9621f9e146103f45761014d565b806351adeb571161011557806351adeb57146101d8578063587168411461020c578063715018a6146102405780638da5cb5b1461024a578063a55b06f81461027e578063a8d5fd651461029e5761014d565b80632434967114610152578063279aa37a1461015c5780632ee0f0901461017c5780634641257d1461019a578063484f4ea9146101a4575b600080fd5b61015a610539565b005b610164610702565b60405180821515815260200191505060405180910390f35b61018461087c565b6040518082815260200191505060405180910390f35b6101a2610882565b005b6101ac61095b565b604051808273ffffffffffffffffffffffffffffffffffffffff16815260200191505060405180910390f35b6101e0610981565b604051808273ffffffffffffffffffffffffffffffffffffffff16815260200191505060405180910390f35b6102146109a7565b604051808273ffffffffffffffffffffffffffffffffffffffff16815260200191505060405180910390f35b6102486109cd565b005b610252610b3a565b604051808273ffffffffffffffffffffffffffffffffffffffff16815260200191505060405180910390f35b610286610b63565b60405180821515815260200191505060405180910390f35b6102a6610cdd565b604051808273ffffffffffffffffffffffffffffffffffffffff16815260200191505060405180910390f35b6102fe600480360360208110156102e857600080fd5b8101908080359060200190929190505050610d03565b604051808273ffffffffffffffffffffffffffffffffffffffff16815260200191505060405180910390f35b610332610d42565b604051808273ffffffffffffffffffffffffffffffffffffffff16815260200191505060405180910390f35b61038a6004803603602081101561037457600080fd5b8101908080359060200190929190505050610d68565b005b610394610f41565b604051808273ffffffffffffffffffffffffffffffffffffffff16815260200191505060405180910390f35b6103c8610f67565b604051808273ffffffffffffffffffffffffffffffffffffffff16815260200191505060405180910390f35b6103fc610f8d565b604051808381526020018281526020019250505060405180910390f35b6104456004803603602081101561042f57600080fd5b81019080803590602001909291905050506111e3565b005b6104736004803603602081101561045d57600080fd5b81019080803590602001909291905050506112eb565b005b6104a16004803603602081101561048b57600080fd5b81019080803590602001909291905050506114c4565b604051808273ffffffffffffffffffffffffffffffffffffffff16815260200191505060405180910390f35b61050f600480360360208110156104e357600080fd5b81019080803573ffffffffffffffffffffffffffffffffffffffff169060200190929190505050611503565b005b6105196116f5565b005b610523611f2d565b6040518082815260200191505060405180910390f35b610541612110565b73ffffffffffffffffffffffffffffffffffffffff1661055f610b3a565b73ffffffffffffffffffffffffffffffffffffffff16146105e8576040517f08c379a00000000000000000000000000000000000000000000000000000000081526004018080602001828103825260208152602001807f4f776e61626c653a2063616c6c6572206973206e6f7420746865206f776e657281525060200191505060405180910390fd5b6105f0612118565b61070033600560009054906101000a900473ffffffffffffffffffffffffffffffffffffffff1673ffffffffffffffffffffffffffffffffffffffff166370a08231306040518263ffffffff1660e01b8152600401808273ffffffffffffffffffffffffffffffffffffffff16815260200191505060206040518083038186803b15801561067d57600080fd5b505afa158015610691573d6000803e3d6000fd5b505050506040513d60208110156106a757600080fd5b8101908080519060200190929190505050600560009054906101000a900473ffffffffffffffffffffffffffffffffffffffff1673ffffffffffffffffffffffffffffffffffffffff166121bd9092919063ffffffff16565b565b600061070c612110565b73ffffffffffffffffffffffffffffffffffffffff1661072a610b3a565b73ffffffffffffffffffffffffffffffffffffffff16146107b3576040517f08c379a00000000000000000000000000000000000000000000000000000000081526004018080602001828103825260208152602001807f4f776e61626c653a2063616c6c6572206973206e6f7420746865206f776e657281525060200191505060405180910390fd5b600260009054906101000a900473ffffffffffffffffffffffffffffffffffffffff1673ffffffffffffffffffffffffffffffffffffffff1663046335d0306040518263ffffffff1660e01b8152600401808273ffffffffffffffffffffffffffffffffffffffff16815260200191505060206040518083038186803b15801561083c57600080fd5b505afa158015610850573d6000803e3d6000fd5b505050506040513d602081101561086657600080fd5b8101908080519060200190929190505050905090565b600b5481565b61088a612110565b73ffffffffffffffffffffffffffffffffffffffff166108a8610b3a565b73ffffffffffffffffffffffffffffffffffffffff1614610931576040517f08c379a00000000000000000000000000000000000000000000000000000000081526004018080602001828103825260208152602001807f4f776e61626c653a2063616c6c6572206973206e6f7420746865206f776e657281525060200191505060405180910390fd5b61093961225f565b6109416122ef565b6109496126a5565b6109516129d3565b610959612c0c565b565b600760009054906101000a900473ffffffffffffffffffffffffffffffffffffffff1681565b600660009054906101000a900473ffffffffffffffffffffffffffffffffffffffff1681565b600160009054906101000a900473ffffffffffffffffffffffffffffffffffffffff1681565b6109d5612110565b73ffffffffffffffffffffffffffffffffffffffff166109f3610b3a565b73ffffffffffffffffffffffffffffffffffffffff1614610a7c576040517f08c379a00000000000000000000000000000000000000000000000000000000081526004018080602001828103825260208152602001807f4f776e61626c653a2063616c6c6572206973206e6f7420746865206f776e657281525060200191505060405180910390fd5b600073ffffffffffffffffffffffffffffffffffffffff1660008054906101000a900473ffffffffffffffffffffffffffffffffffffffff1673ffffffffffffffffffffffffffffffffffffffff167f8be0079c531659141344cd1fd0a4f28419497f9722a3daafe3b4186f6b6457e060405160405180910390a360008060006101000a81548173ffffffffffffffffffffffffffffffffffffffff021916908373ffffffffffffffffffffffffffffffffffffffff160217905550565b60008060009054906101000a900473ffffffffffffffffffffffffffffffffffffffff16905090565b6000610b6d612110565b73ffffffffffffffffffffffffffffffffffffffff16610b8b610b3a565b73ffffffffffffffffffffffffffffffffffffffff1614610c14576040517f08c379a00000000000000000000000000000000000000000000000000000000081526004018080602001828103825260208152602001807f4f776e61626c653a2063616c6c6572206973206e6f7420746865206f776e657281525060200191505060405180910390fd5b600260009054906101000a900473ffffffffffffffffffffffffffffffffffffffff1673ffffffffffffffffffffffffffffffffffffffff166319262d30306040518263ffffffff1660e01b8152600401808273ffffffffffffffffffffffffffffffffffffffff16815260200191505060206040518083038186803b158015610c9d57600080fd5b505afa158015610cb1573d6000803e3d6000fd5b505050506040513d6020811015610cc757600080fd5b8101908080519060200190929190505050905090565b600560009054906101000a900473ffffffffffffffffffffffffffffffffffffffff1681565b60098181548110610d1357600080fd5b906000526020600020016000915054906101000a900473ffffffffffffffffffffffffffffffffffffffff1681565b600460009054906101000a900473ffffffffffffffffffffffffffffffffffffffff1681565b610d70612110565b73ffffffffffffffffffffffffffffffffffffffff16610d8e610b3a565b73ffffffffffffffffffffffffffffffffffffffff1614610e17576040517f08c379a00000000000000000000000000000000000000000000000000000000081526004018080602001828103825260208152602001807f4f776e61626c653a2063616c6c6572206973206e6f7420746865206f776e657281525060200191505060405180910390fd5b80600560009054906101000a900473ffffffffffffffffffffffffffffffffffffffff1673ffffffffffffffffffffffffffffffffffffffff166370a08231336040518263ffffffff1660e01b8152600401808273ffffffffffffffffffffffffffffffffffffffff16815260200191505060206040518083038186803b158015610ea157600080fd5b505afa158015610eb5573d6000803e3d6000fd5b505050506040513d6020811015610ecb57600080fd5b81019080805190602001909291905050501015610ee757600080fd5b610f36333083600560009054906101000a900473ffffffffffffffffffffffffffffffffffffffff1673ffffffffffffffffffffffffffffffffffffffff16612f09909392919063ffffffff16565b610f3e612c0c565b50565b600360009054906101000a900473ffffffffffffffffffffffffffffffffffffffff1681565b600260009054906101000a900473ffffffffffffffffffffffffffffffffffffffff1681565b600080610f98612110565b73ffffffffffffffffffffffffffffffffffffffff16610fb6610b3a565b73ffffffffffffffffffffffffffffffffffffffff161461103f576040517f08c379a00000000000000000000000000000000000000000000000000000000081526004018080602001828103825260208152602001807f4f776e61626c653a2063616c6c6572206973206e6f7420746865206f776e657281525060200191505060405180910390fd5b6000600160009054906101000a900473ffffffffffffffffffffffffffffffffffffffff1673ffffffffffffffffffffffffffffffffffffffff1663cf4b55cb6000306040518363ffffffff1660e01b8152600401808381526020018273ffffffffffffffffffffffffffffffffffffffff1681526020019250505060206040518083038186803b1580156110d357600080fd5b505afa1580156110e7573d6000803e3d6000fd5b505050506040513d60208110156110fd57600080fd5b810190808051906020019092919050505090506000600260009054906101000a900473ffffffffffffffffffffffffffffffffffffffff1673ffffffffffffffffffffffffffffffffffffffff16628cc262306040518263ffffffff1660e01b8152600401808273ffffffffffffffffffffffffffffffffffffffff16815260200191505060206040518083038186803b15801561119a57600080fd5b505afa1580156111ae573d6000803e3d6000fd5b505050506040513d60208110156111c457600080fd5b8101908080519060200190929190505050905081819350935050509091565b6111eb612110565b73ffffffffffffffffffffffffffffffffffffffff16611209610b3a565b73ffffffffffffffffffffffffffffffffffffffff1614611292576040517f08c379a00000000000000000000000000000000000000000000000000000000081526004018080602001828103825260208152602001807f4f776e61626c653a2063616c6c6572206973206e6f7420746865206f776e657281525060200191505060405180910390fd5b61129b81612fca565b6112e83382600460009054906101000a900473ffffffffffffffffffffffffffffffffffffffff1673ffffffffffffffffffffffffffffffffffffffff166121bd9092919063ffffffff16565b50565b6112f3612110565b73ffffffffffffffffffffffffffffffffffffffff16611311610b3a565b73ffffffffffffffffffffffffffffffffffffffff161461139a576040517f08c379a00000000000000000000000000000000000000000000000000000000081526004018080602001828103825260208152602001807f4f776e61626c653a2063616c6c6572206973206e6f7420746865206f776e657281525060200191505060405180910390fd5b80600460009054906101000a900473ffffffffffffffffffffffffffffffffffffffff1673ffffffffffffffffffffffffffffffffffffffff166370a08231336040518263ffffffff1660e01b8152600401808273ffffffffffffffffffffffffffffffffffffffff16815260200191505060206040518083038186803b15801561142457600080fd5b505afa158015611438573d6000803e3d6000fd5b505050506040513d602081101561144e57600080fd5b8101908080519060200190929190505050101561146a57600080fd5b6114b9333083600460009054906101000a900473ffffffffffffffffffffffffffffffffffffffff1673ffffffffffffffffffffffffffffffffffffffff16612f09909392919063ffffffff16565b6114c16129d3565b50565b600881815481106114d457600080fd5b906000526020600020016000915054906101000a900473ffffffffffffffffffffffffffffffffffffffff1681565b61150b612110565b73ffffffffffffffffffffffffffffffffffffffff16611529610b3a565b73ffffffffffffffffffffffffffffffffffffffff16146115b2576040517f08c379a00000000000000000000000000000000000000000000000000000000081526004018080602001828103825260208152602001807f4f776e61626c653a2063616c6c6572206973206e6f7420746865206f776e657281525060200191505060405180910390fd5b600073ffffffffffffffffffffffffffffffffffffffff168173ffffffffffffffffffffffffffffffffffffffff161415611638576040517f08c379a000000000000000000000000000000000000000000000000000000000815260040180806020018281038252602681526020018061358a6026913960400191505060405180910390fd5b8073ffffffffffffffffffffffffffffffffffffffff1660008054906101000a900473ffffffffffffffffffffffffffffffffffffffff1673ffffffffffffffffffffffffffffffffffffffff167f8be0079c531659141344cd1fd0a4f28419497f9722a3daafe3b4186f6b6457e060405160405180910390a3806000806101000a81548173ffffffffffffffffffffffffffffffffffffffff021916908373ffffffffffffffffffffffffffffffffffffffff16021790555050565b6116fd612110565b73ffffffffffffffffffffffffffffffffffffffff1661171b610b3a565b73ffffffffffffffffffffffffffffffffffffffff16146117a4576040517f08c379a00000000000000000000000000000000000000000000000000000000081526004018080602001828103825260208152602001807f4f776e61626c653a2063616c6c6572206973206e6f7420746865206f776e657281525060200191505060405180910390fd5b6117af600a54612fca565b6117b7612118565b6000600460009054906101000a900473ffffffffffffffffffffffffffffffffffffffff1673ffffffffffffffffffffffffffffffffffffffff166370a08231306040518263ffffffff1660e01b8152600401808273ffffffffffffffffffffffffffffffffffffffff16815260200191505060206040518083038186803b15801561184257600080fd5b505afa158015611856573d6000803e3d6000fd5b505050506040513d602081101561186c57600080fd5b810190808051906020019092919050505011156119945761199333600460009054906101000a900473ffffffffffffffffffffffffffffffffffffffff1673ffffffffffffffffffffffffffffffffffffffff166370a08231306040518263ffffffff1660e01b8152600401808273ffffffffffffffffffffffffffffffffffffffff16815260200191505060206040518083038186803b15801561191057600080fd5b505afa158015611924573d6000803e3d6000fd5b505050506040513d602081101561193a57600080fd5b8101908080519060200190929190505050600460009054906101000a900473ffffffffffffffffffffffffffffffffffffffff1673ffffffffffffffffffffffffffffffffffffffff166121bd9092919063ffffffff16565b5b6000600560009054906101000a900473ffffffffffffffffffffffffffffffffffffffff1673ffffffffffffffffffffffffffffffffffffffff166370a08231306040518263ffffffff1660e01b8152600401808273ffffffffffffffffffffffffffffffffffffffff16815260200191505060206040518083038186803b158015611a1f57600080fd5b505afa158015611a33573d6000803e3d6000fd5b505050506040513d6020811015611a4957600080fd5b81019080805190602001909291905050501115611b7157611b7033600560009054906101000a900473ffffffffffffffffffffffffffffffffffffffff1673ffffffffffffffffffffffffffffffffffffffff166370a08231306040518263ffffffff1660e01b8152600401808273ffffffffffffffffffffffffffffffffffffffff16815260200191505060206040518083038186803b158015611aed57600080fd5b505afa158015611b01573d6000803e3d6000fd5b505050506040513d6020811015611b1757600080fd5b8101908080519060200190929190505050600560009054906101000a900473ffffffffffffffffffffffffffffffffffffffff1673ffffffffffffffffffffffffffffffffffffffff166121bd9092919063ffffffff16565b5b6000600660009054906101000a900473ffffffffffffffffffffffffffffffffffffffff1673ffffffffffffffffffffffffffffffffffffffff166370a08231306040518263ffffffff1660e01b8152600401808273ffffffffffffffffffffffffffffffffffffffff16815260200191505060206040518083038186803b158015611bfc57600080fd5b505afa158015611c10573d6000803e3d6000fd5b505050506040513d6020811015611c2657600080fd5b81019080805190602001909291905050501115611d4e57611d4d33600660009054906101000a900473ffffffffffffffffffffffffffffffffffffffff1673ffffffffffffffffffffffffffffffffffffffff166370a08231306040518263ffffffff1660e01b8152600401808273ffffffffffffffffffffffffffffffffffffffff16815260200191505060206040518083038186803b158015611cca57600080fd5b505afa158015611cde573d6000803e3d6000fd5b505050506040513d6020811015611cf457600080fd5b8101908080519060200190929190505050600660009054906101000a900473ffffffffffffffffffffffffffffffffffffffff1673ffffffffffffffffffffffffffffffffffffffff166121bd9092919063ffffffff16565b5b6000600760009054906101000a900473ffffffffffffffffffffffffffffffffffffffff1673ffffffffffffffffffffffffffffffffffffffff166370a08231306040518263ffffffff1660e01b8152600401808273ffffffffffffffffffffffffffffffffffffffff16815260200191505060206040518083038186803b158015611dd957600080fd5b505afa158015611ded573d6000803e3d6000fd5b505050506040513d6020811015611e0357600080fd5b81019080805190602001909291905050501115611f2b57611f2a33600760009054906101000a900473ffffffffffffffffffffffffffffffffffffffff1673ffffffffffffffffffffffffffffffffffffffff166370a08231306040518263ffffffff1660e01b8152600401808273ffffffffffffffffffffffffffffffffffffffff16815260200191505060206040518083038186803b158015611ea757600080fd5b505afa158015611ebb573d6000803e3d6000fd5b505050506040513d6020811015611ed157600080fd5b8101908080519060200190929190505050600760009054906101000a900473ffffffffffffffffffffffffffffffffffffffff1673ffffffffffffffffffffffffffffffffffffffff166121bd9092919063ffffffff16565b5b565b600a5481565b6000811480612001575060008373ffffffffffffffffffffffffffffffffffffffff1663dd62ed3e30856040518363ffffffff1660e01b8152600401808373ffffffffffffffffffffffffffffffffffffffff1681526020018273ffffffffffffffffffffffffffffffffffffffff1681526020019250505060206040518083038186803b158015611fc457600080fd5b505afa158015611fd8573d6000803e3d6000fd5b505050506040513d6020811015611fee57600080fd5b8101908080519060200190929190505050145b612056576040517f08c379a00000000000000000000000000000000000000000000000000000000081526004018080602001828103825260368152602001806136006036913960400191505060405180910390fd5b6120f38363095ea7b360e01b8484604051602401808373ffffffffffffffffffffffffffffffffffffffff16815260200182815260200192505050604051602081830303815290604052907bffffffffffffffffffffffffffffffffffffffffffffffffffffffff19166020820180517bffffffffffffffffffffffffffffffffffffffffffffffffffffffff838183161783525050505061307e565b505050565b6060612107848460008561316d565b90509392505050565b600033905090565b6000600b5411156121bb57600260009054906101000a900473ffffffffffffffffffffffffffffffffffffffff1673ffffffffffffffffffffffffffffffffffffffff16632e1a7d4d600b546040518263ffffffff1660e01b815260040180828152602001915050600060405180830381600087803b15801561219a57600080fd5b505af11580156121ae573d6000803e3d6000fd5b505050506000600b819055505b565b61225a8363a9059cbb60e01b8484604051602401808373ffffffffffffffffffffffffffffffffffffffff16815260200182815260200192505050604051602081830303815290604052907bffffffffffffffffffffffffffffffffffffffffffffffffffffffff19166020820180517bffffffffffffffffffffffffffffffffffffffffffffffffffffffff838183161783525050505061307e565b505050565b6000600b5411156122ed57600260009054906101000a900473ffffffffffffffffffffffffffffffffffffffff1673ffffffffffffffffffffffffffffffffffffffff1663b88a802f6040518163ffffffff1660e01b8152600401600060405180830381600087803b1580156122d457600080fd5b505af11580156122e8573d6000803e3d6000fd5b505050505b565b6000600660009054906101000a900473ffffffffffffffffffffffffffffffffffffffff1673ffffffffffffffffffffffffffffffffffffffff166370a08231306040518263ffffffff1660e01b8152600401808273ffffffffffffffffffffffffffffffffffffffff16815260200191505060206040518083038186803b15801561237a57600080fd5b505afa15801561238e573d6000803e3d6000fd5b505050506040513d60208110156123a457600080fd5b810190808051906020019092919050505011156126a35760006124946002600660009054906101000a900473ffffffffffffffffffffffffffffffffffffffff1673ffffffffffffffffffffffffffffffffffffffff166370a08231306040518263ffffffff1660e01b8152600401808273ffffffffffffffffffffffffffffffffffffffff16815260200191505060206040518083038186803b15801561244b57600080fd5b505afa15801561245f573d6000803e3d6000fd5b505050506040513d602081101561247557600080fd5b810190808051906020019092919050505061331690919063ffffffff16565b9050600360009054906101000a900473ffffffffffffffffffffffffffffffffffffffff1673ffffffffffffffffffffffffffffffffffffffff166338ed17398260006008306124ef6102584261339f90919063ffffffff16565b6040518663ffffffff1660e01b815260040180868152602001858152602001806020018473ffffffffffffffffffffffffffffffffffffffff16815260200183815260200182810382528581815481526020019150805480156125a757602002820191906000526020600020905b8160009054906101000a900473ffffffffffffffffffffffffffffffffffffffff1673ffffffffffffffffffffffffffffffffffffffff168152602001906001019080831161255d575b50509650505050505050600060405180830381600087803b1580156125cb57600080fd5b505af11580156125df573d6000803e3d6000fd5b505050506040513d6000823e3d601f19601f82011682018060405250602081101561260957600080fd5b810190808051604051939291908464010000000082111561262957600080fd5b8382019150602082018581111561263f57600080fd5b825186602082028301116401000000008211171561265c57600080fd5b8083526020830192505050908051906020019060200280838360005b83811015612693578082015181840152602081019050612678565b5050505090500160405250505050505b565b6000600660009054906101000a900473ffffffffffffffffffffffffffffffffffffffff1673ffffffffffffffffffffffffffffffffffffffff166370a08231306040518263ffffffff1660e01b8152600401808273ffffffffffffffffffffffffffffffffffffffff16815260200191505060206040518083038186803b15801561273057600080fd5b505afa158015612744573d6000803e3d6000fd5b505050506040513d602081101561275a57600080fd5b810190808051906020019092919050505090506000600760009054906101000a900473ffffffffffffffffffffffffffffffffffffffff1673ffffffffffffffffffffffffffffffffffffffff166370a08231306040518263ffffffff1660e01b8152600401808273ffffffffffffffffffffffffffffffffffffffff16815260200191505060206040518083038186803b1580156127f857600080fd5b505afa15801561280c573d6000803e3d6000fd5b505050506040513d602081101561282257600080fd5b81019080805190602001909291905050509050600360009054906101000a900473ffffffffffffffffffffffffffffffffffffffff1673ffffffffffffffffffffffffffffffffffffffff1663e8e33700600660009054906101000a900473ffffffffffffffffffffffffffffffffffffffff16600760009054906101000a900473ffffffffffffffffffffffffffffffffffffffff168585600180306128d46102584261339f90919063ffffffff16565b6040518963ffffffff1660e01b8152600401808973ffffffffffffffffffffffffffffffffffffffff1681526020018873ffffffffffffffffffffffffffffffffffffffff1681526020018781526020018681526020018581526020018481526020018373ffffffffffffffffffffffffffffffffffffffff16815260200182815260200198505050505050505050606060405180830381600087803b15801561297d57600080fd5b505af1158015612991573d6000803e3d6000fd5b505050506040513d60608110156129a757600080fd5b810190808051906020019092919080519060200190929190805190602001909291905050505050505050565b612aab600460009054906101000a900473ffffffffffffffffffffffffffffffffffffffff1673ffffffffffffffffffffffffffffffffffffffff166370a08231306040518263ffffffff1660e01b8152600401808273ffffffffffffffffffffffffffffffffffffffff16815260200191505060206040518083038186803b158015612a5f57600080fd5b505afa158015612a73573d6000803e3d6000fd5b505050506040513d6020811015612a8957600080fd5b8101908080519060200190929190505050600a5461339f90919063ffffffff16565b600a81905550600160009054906101000a900473ffffffffffffffffffffffffffffffffffffffff1673ffffffffffffffffffffffffffffffffffffffff1663e2bbb1586000600460009054906101000a900473ffffffffffffffffffffffffffffffffffffffff1673ffffffffffffffffffffffffffffffffffffffff166370a08231306040518263ffffffff1660e01b8152600401808273ffffffffffffffffffffffffffffffffffffffff16815260200191505060206040518083038186803b158015612b7a57600080fd5b505afa158015612b8e573d6000803e3d6000fd5b505050506040513d6020811015612ba457600080fd5b81019080805190602001909291905050506040518363ffffffff1660e01b81526004018083815260200182815260200192505050600060405180830381600087803b158015612bf257600080fd5b505af1158015612c06573d6000803e3d6000fd5b50505050565b6000600560009054906101000a900473ffffffffffffffffffffffffffffffffffffffff1673ffffffffffffffffffffffffffffffffffffffff166370a08231306040518263ffffffff1660e01b8152600401808273ffffffffffffffffffffffffffffffffffffffff16815260200191505060206040518083038186803b158015612c9757600080fd5b505afa158015612cab573d6000803e3d6000fd5b505050506040513d6020811015612cc157600080fd5b81019080805190602001909291905050501115612f0757612db0600560009054906101000a900473ffffffffffffffffffffffffffffffffffffffff1673ffffffffffffffffffffffffffffffffffffffff166370a08231306040518263ffffffff1660e01b8152600401808273ffffffffffffffffffffffffffffffffffffffff16815260200191505060206040518083038186803b158015612d6457600080fd5b505afa158015612d78573d6000803e3d6000fd5b505050506040513d6020811015612d8e57600080fd5b8101908080519060200190929190505050600b5461339f90919063ffffffff16565b600b81905550600260009054906101000a900473ffffffffffffffffffffffffffffffffffffffff1673ffffffffffffffffffffffffffffffffffffffff1663a694fc3a600560009054906101000a900473ffffffffffffffffffffffffffffffffffffffff1673ffffffffffffffffffffffffffffffffffffffff166370a08231306040518263ffffffff1660e01b8152600401808273ffffffffffffffffffffffffffffffffffffffff16815260200191505060206040518083038186803b158015612e7d57600080fd5b505afa158015612e91573d6000803e3d6000fd5b505050506040513d6020811015612ea757600080fd5b81019080805190602001909291905050506040518263ffffffff1660e01b815260040180828152602001915050600060405180830381600087803b158015612eee57600080fd5b505af1158015612f02573d6000803e3d6000fd5b505050505b565b612fc4846323b872dd60e01b858585604051602401808473ffffffffffffffffffffffffffffffffffffffff1681526020018373ffffffffffffffffffffffffffffffffffffffff1681526020018281526020019350505050604051602081830303815290604052907bffffffffffffffffffffffffffffffffffffffffffffffffffffffff19166020820180517bffffffffffffffffffffffffffffffffffffffffffffffffffffffff838183161783525050505061307e565b50505050565b600160009054906101000a900473ffffffffffffffffffffffffffffffffffffffff1673ffffffffffffffffffffffffffffffffffffffff1663441a3e706000836040518363ffffffff1660e01b81526004018083815260200182815260200192505050600060405180830381600087803b15801561304857600080fd5b505af115801561305c573d6000803e3d6000fd5b5050505061307581600a5461342790919063ffffffff16565b600a8190555050565b60606130e0826040518060400160405280602081526020017f5361666545524332303a206c6f772d6c6576656c2063616c6c206661696c65648152508573ffffffffffffffffffffffffffffffffffffffff166120f89092919063ffffffff16565b90506000815111156131685780806020019051602081101561310157600080fd5b8101908080519060200190929190505050613167576040517f08c379a000000000000000000000000000000000000000000000000000000000815260040180806020018281038252602a8152602001806135d6602a913960400191505060405180910390fd5b5b505050565b6060824710156131c8576040517f08c379a00000000000000000000000000000000000000000000000000000000081526004018080602001828103825260268152602001806135b06026913960400191505060405180910390fd5b6131d1856134aa565b613243576040517f08c379a000000000000000000000000000000000000000000000000000000000815260040180806020018281038252601d8152602001807f416464726573733a2063616c6c20746f206e6f6e2d636f6e747261637400000081525060200191505060405180910390fd5b600060608673ffffffffffffffffffffffffffffffffffffffff1685876040518082805190602001908083835b602083106132935780518252602082019150602081019050602083039250613270565b6001836020036101000a03801982511681845116808217855250505050505090500191505060006040518083038185875af1925050503d80600081146132f5576040519150601f19603f3d011682016040523d82523d6000602084013e6132fa565b606091505b509150915061330a8282866134bd565b92505050949350505050565b600080821161338d576040517f08c379a000000000000000000000000000000000000000000000000000000000815260040180806020018281038252601a8152602001807f536166654d6174683a206469766973696f6e206279207a65726f00000000000081525060200191505060405180910390fd5b81838161339657fe5b04905092915050565b60008082840190508381101561341d576040517f08c379a000000000000000000000000000000000000000000000000000000000815260040180806020018281038252601b8152602001807f536166654d6174683a206164646974696f6e206f766572666c6f77000000000081525060200191505060405180910390fd5b8091505092915050565b60008282111561349f576040517f08c379a000000000000000000000000000000000000000000000000000000000815260040180806020018281038252601e8152602001807f536166654d6174683a207375627472616374696f6e206f766572666c6f77000081525060200191505060405180910390fd5b818303905092915050565b600080823b905060008111915050919050565b606083156134cd57829050613582565b6000835111156134e05782518084602001fd5b816040517f08c379a00000000000000000000000000000000000000000000000000000000081526004018080602001828103825283818151815260200191508051906020019080838360005b8381101561354757808201518184015260208101905061352c565b50505050905090810190601f1680156135745780820380516001836020036101000a031916815260200191505b509250505060405180910390fd5b939250505056fe4f776e61626c653a206e6577206f776e657220697320746865207a65726f2061646472657373416464726573733a20696e73756666696369656e742062616c616e636520666f722063616c6c5361666545524332303a204552433230206f7065726174696f6e20646964206e6f7420737563636565645361666545524332303a20617070726f76652066726f6d206e6f6e2d7a65726f20746f206e6f6e2d7a65726f20616c6c6f77616e6365a264697066735822122044d17b105e3cb4e120efbb95cdc798c7416f302902990467d494b35a04c880b564736f6c63430007040033416464726573733a20696e73756666696369656e742062616c616e636520666f722063616c6c5361666545524332303a204552433230206f7065726174696f6e20646964206e6f7420737563636565645361666545524332303a20617070726f76652066726f6d206e6f6e2d7a65726f20746f206e6f6e2d7a65726f20616c6c6f77616e6365",
  "immutableReferences": {},
  "source": "// \"SPDX-License-Identifier: UNLICENSED\"\r\npragma solidity >=0.7.0 <0.8.0;\r\n\r\nimport 'openzeppelin-solidity/contracts/math/SafeMath.sol';\r\nimport 'openzeppelin-solidity/contracts/utils/Context.sol';\r\nimport 'openzeppelin-solidity/contracts/access/Ownable.sol';\r\nimport 'openzeppelin-solidity/contracts/token/ERC20/SafeERC20.sol';\r\n\r\n\r\ninterface IShareRewardPool {\r\n    function deposit(uint256 _pid, uint256 _amount) external;\r\n    function withdraw(uint256 _pid, uint256 _amount) external;\r\n    function pendingShare(uint256 _pid, address _user) external view returns (uint256);\r\n\r\n}\r\n\r\ninterface IBoardroom {\r\n    function stake(uint256 amount) external;\r\n    function withdraw(uint256 amount) external;\r\n    function claimReward() external;\r\n    function earned(address director) external view returns (uint256);\r\n    function canWithdraw(address director) external view returns (bool);\r\n    function canClaimReward(address director) external view returns (bool);\r\n}\r\n\r\ninterface IPancakeRouter {\r\n    function addLiquidity(\r\n        address tokenA,\r\n        address tokenB,\r\n        uint amountADesired,\r\n        uint amountBDesired,\r\n        uint amountAMin,\r\n        uint amountBMin,\r\n        address to,\r\n        uint deadline\r\n    ) external returns (uint amountA, uint amountB, uint liquidity);\r\n    \r\n    function swapExactTokensForTokens(\r\n        uint amountIn, \r\n        uint amountOutMin, \r\n        address[] calldata path, \r\n        address to, \r\n        uint deadline\r\n    ) external returns (uint[] memory amounts);\r\n}\r\n\r\n\r\n\r\n\r\ncontract Optimizer is Ownable {\r\n    using SafeERC20 for IERC20;\r\n    using SafeMath for uint256;\r\n\r\n    \r\n    uint256 constant MAX_INT = 2**256 - 1;\r\n\r\n    /**\r\n     * @dev Interfacing contracts addresses\r\n     */\r\n    address public shareRewardPoolAddr;\r\n    address public boardroomAddr;\r\n    address public pancakeRouter;// = 0x05fF2B0DB69458A0750badebc4f9e13aDd608C7F;\r\n    \r\n    /**\r\n     * @dev Tokens addresses\r\n     */    \r\n    address public LP;\r\n    address public share;\r\n    address public dollar;\r\n    address public BUSD; //= 0xf8e81D47203A594245E36C48e151709F0C19fBe8;\r\n    \r\n    /**\r\n     * @dev Token swap route addresses \r\n     */    \r\n    address[] public dollarToBUSDRoute;\r\n    address[] public BUSDToDollarRoute;\r\n\r\n    uint256 public LpStaked = 0;\r\n    uint256 public shareStaked = 0;\r\n\r\n    /**\r\n     * @dev Initializes the strategy for the given protocol\r\n     */\r\n    constructor(address _LP, address _share, address _dollar, address _shareRewardPool, address _boardroom) {\r\n        LP = _LP;\r\n        share = _share;\r\n        dollar = _dollar;\r\n        shareRewardPoolAddr = _shareRewardPool;\r\n        boardroomAddr = _boardroom;\r\n        dollarToBUSDRoute = [_dollar, BUSD];\r\n        BUSDToDollarRoute = [BUSD, _dollar];\r\n        \r\n        IERC20(LP).safeApprove(shareRewardPoolAddr, 0);\r\n        IERC20(LP).safeApprove(shareRewardPoolAddr, MAX_INT);\r\n        IERC20(share).safeApprove(boardroomAddr, 0);\r\n        IERC20(share).safeApprove(boardroomAddr, MAX_INT);\r\n        //IERC20(dollar).safeApprove(pancakeRouter, 0);\r\n        //IERC20(dollar).safeApprove(pancakeRouter, MAX_INT);\r\n        //IERC20(BUSD).safeApprove(pancakeRouter, 0);\r\n        //IERC20(BUSD).safeApprove(pancakeRouter, MAX_INT);\r\n        \r\n    }\r\n\r\n    function depositLP(uint256 _amount) external onlyOwner {\r\n        require(IERC20(LP).balanceOf(address(msg.sender)) >= _amount);\r\n        IERC20(LP).safeTransferFrom(msg.sender, address(this), _amount);\r\n        _depositAllLP();\r\n    }\r\n    \r\n\r\n    function withdrawLP(uint256 _amount) external onlyOwner {\r\n        _withdrawLP(_amount);\r\n        IERC20(LP).safeTransfer(msg.sender, _amount);\r\n    }\r\n\r\n    function depositShare(uint256 _amount) external onlyOwner {\r\n        require(IERC20(share).balanceOf(address(msg.sender)) >= _amount);\r\n        IERC20(share).safeTransferFrom(msg.sender, address(this), _amount);\r\n        _stakeAllShare();\r\n    }\r\n    \r\n    function withdrawShare() external onlyOwner {\r\n        _withdrawAllShare();\r\n        IERC20(share).safeTransfer(msg.sender, IERC20(share).balanceOf(address(this)));\r\n    }\r\n\r\n    function harvest() external onlyOwner {\r\n        _claimDollar();\r\n        _splitDollarToBUSD();\r\n        _mintLP();\r\n        _depositAllLP();\r\n        _stakeAllShare();\r\n    }\r\n   \r\n    function exitAvalanche() external onlyOwner {\r\n        _withdrawLP(LpStaked);\r\n        _withdrawAllShare();\r\n        if(IERC20(LP).balanceOf(address(this)) > 0){\r\n            IERC20(LP).safeTransfer(msg.sender, IERC20(LP).balanceOf(address(this)));\r\n        }\r\n        if(IERC20(share).balanceOf(address(this)) > 0){\r\n            IERC20(share).safeTransfer(msg.sender, IERC20(share).balanceOf(address(this)));\r\n        }\r\n        if(IERC20(dollar).balanceOf(address(this)) > 0){\r\n            IERC20(dollar).safeTransfer(msg.sender, IERC20(dollar).balanceOf(address(this)));\r\n        }\r\n        if(IERC20(BUSD).balanceOf(address(this)) > 0){\r\n            IERC20(BUSD).safeTransfer(msg.sender, IERC20(BUSD).balanceOf(address(this)));\r\n        }\r\n    }\r\n    \r\n\r\n    function getPendingRewards() external view onlyOwner returns(uint256, uint256) {\r\n        uint256 shareReward = IShareRewardPool(shareRewardPoolAddr).pendingShare(0, address(this));\r\n        uint256 dollarReward = IBoardroom(boardroomAddr).earned(address(this));\r\n        return (shareReward, dollarReward);\r\n    }\r\n\r\n    function canClaimDollar() external view onlyOwner returns(bool) {\r\n        return IBoardroom(boardroomAddr).canClaimReward(address(this));\r\n    }\r\n\r\n    function canWithdrawShare() external view onlyOwner returns(bool) {\r\n        return IBoardroom(boardroomAddr).canWithdraw(address(this));\r\n    }\r\n\r\n\r\n    function _depositAllLP() internal {\r\n        LpStaked = LpStaked.add(IERC20(LP).balanceOf(address(this)));\r\n        IShareRewardPool(shareRewardPoolAddr).deposit(0, IERC20(LP).balanceOf(address(this)));\r\n    }\r\n\r\n    function _withdrawLP(uint256 _amount) internal {\r\n        IShareRewardPool(shareRewardPoolAddr).withdraw(0, _amount);\r\n        LpStaked = LpStaked.sub(_amount);\r\n    }\r\n\r\n    function _claimShare() internal {\r\n        if(LpStaked > 0) {\r\n            IShareRewardPool(shareRewardPoolAddr).withdraw(0, 0);\r\n        }\r\n    } \r\n    \r\n    function _stakeAllShare() internal {\r\n        if(IERC20(share).balanceOf(address(this)) > 0) {\r\n            shareStaked = shareStaked.add(IERC20(share).balanceOf(address(this)));\r\n            IBoardroom(boardroomAddr).stake(IERC20(share).balanceOf(address(this)));\r\n        }\r\n    }\r\n    \r\n    function _withdrawAllShare() internal {\r\n        if(shareStaked > 0) {\r\n            IBoardroom(boardroomAddr).withdraw(shareStaked);\r\n            shareStaked = 0;\r\n        }    \r\n    }  \r\n    \r\n    function _claimDollar() internal {\r\n        if(shareStaked > 0) {\r\n            IBoardroom(boardroomAddr).claimReward();   \r\n        }\r\n    }\r\n\r\n    function _splitDollarToBUSD() internal {\r\n        if(IERC20(dollar).balanceOf(address(this)) > 0){\r\n            uint256 dollarSplit = IERC20(dollar).balanceOf(address(this)).div(2);\r\n            IPancakeRouter(pancakeRouter).swapExactTokensForTokens(dollarSplit, 0, dollarToBUSDRoute, address(this), block.timestamp.add(600));            \r\n        }\r\n    }\r\n\r\n    function _splitBUSDToDollar() internal {\r\n        if(IERC20(BUSD).balanceOf(address(this)) > 0){\r\n            uint256 BUSDsplit = IERC20(BUSD).balanceOf(address(this)).div(2);\r\n            IPancakeRouter(pancakeRouter).swapExactTokensForTokens(BUSDsplit, 0, BUSDToDollarRoute, address(this), block.timestamp.add(600));            \r\n        }\r\n    }\r\n\r\n    function _mintLP() internal {\r\n        uint256 dollarBal = IERC20(dollar).balanceOf(address(this));\r\n        uint256 busdBal = IERC20(BUSD).balanceOf(address(this));\r\n        IPancakeRouter(pancakeRouter).addLiquidity(address(IERC20(dollar)), address(IERC20(BUSD)), dollarBal, busdBal, 1, 1, address(this), block.timestamp.add(600));\r\n    }\r\n}    \r\n",
  "sourcePath": "E:/_dev/solidity/HelloOptimizer/contracts/Optimizer.sol",
  "compiler": {
    "name": "solc",
    "version": "0.7.4+commit.3f05b770.Emscripten.clang"
  },
  "schemaVersion": "3.3.4",
  "updatedAt": "2021-04-02T09:48:07.150Z",
  "networkType": "ethereum",
  "devdoc": {
    "kind": "dev",
    "methods": {
      "constructor": {
        "details": "Initializes the strategy for the given protocol"
      },
      "owner()": {
        "details": "Returns the address of the current owner."
      },
      "renounceOwnership()": {
        "details": "Leaves the contract without owner. It will not be possible to call `onlyOwner` functions anymore. Can only be called by the current owner. NOTE: Renouncing ownership will leave the contract without an owner, thereby removing any functionality that is only available to the owner."
      },
      "transferOwnership(address)": {
        "details": "Transfers ownership of the contract to a new account (`newOwner`). Can only be called by the current owner."
      }
    },
    "stateVariables": {
      "LP": {
        "details": "Tokens addresses"
      },
      "dollarToBUSDRoute": {
        "details": "Token swap route addresses "
      },
      "shareRewardPoolAddr": {
        "details": "Interfacing contracts addresses"
      }
    },
    "version": 1
  },
  "userdoc": {
    "kind": "user",
    "methods": {},
    "version": 1
  }
}