{
  "contractName": "ShareRewardPoolMock",
  "abi": [
    {
      "inputs": [
        {
          "internalType": "address",
          "name": "_lp",
          "type": "address"
        },
        {
          "internalType": "address",
          "name": "_share",
          "type": "address"
        }
      ],
      "stateMutability": "nonpayable",
      "type": "constructor"
    },
    {
      "inputs": [
        {
          "internalType": "uint256",
          "name": "_pid",
          "type": "uint256"
        },
        {
          "internalType": "uint256",
          "name": "_amount",
          "type": "uint256"
        }
      ],
      "name": "deposit",
      "outputs": [],
      "stateMutability": "nonpayable",
      "type": "function"
    },
    {
      "inputs": [
        {
          "internalType": "uint256",
          "name": "_pid",
          "type": "uint256"
        },
        {
          "internalType": "uint256",
          "name": "_amount",
          "type": "uint256"
        }
      ],
      "name": "withdraw",
      "outputs": [],
      "stateMutability": "nonpayable",
      "type": "function"
    },
    {
      "inputs": [
        {
          "internalType": "uint256",
          "name": "_pid",
          "type": "uint256"
        },
        {
          "internalType": "address",
          "name": "_user",
          "type": "address"
        }
      ],
      "name": "pendingShare",
      "outputs": [
        {
          "internalType": "uint256",
          "name": "",
          "type": "uint256"
        }
      ],
      "stateMutability": "view",
      "type": "function",
      "constant": true
    }
  ],
  "bytecode": "0x608060405234801561001057600080fd5b5060405161081a38038061081a8339818101604052604081101561003357600080fd5b810190808051906020019092919080519060200190929190505050816000806101000a81548173ffffffffffffffffffffffffffffffffffffffff021916908373ffffffffffffffffffffffffffffffffffffffff16021790555080600160006101000a81548173ffffffffffffffffffffffffffffffffffffffff021916908373ffffffffffffffffffffffffffffffffffffffff160217905550505061073a806100e06000396000f3fe608060405234801561001057600080fd5b50600436106100415760003560e01c8063441a3e7014610046578063cf4b55cb1461007e578063e2bbb158146100e0575b600080fd5b61007c6004803603604081101561005c57600080fd5b810190808035906020019092919080359060200190929190505050610118565b005b6100ca6004803603604081101561009457600080fd5b8101908080359060200190929190803573ffffffffffffffffffffffffffffffffffffffff1690602001909291905050506105fd565b6040518082815260200191505060405180910390f35b610116600480360360408110156100f657600080fd5b81019080803590602001909291908035906020019092919050505061060f565b005b600081111561045c5760008054906101000a900473ffffffffffffffffffffffffffffffffffffffff1673ffffffffffffffffffffffffffffffffffffffff1663a9059cbb33836040518363ffffffff1660e01b8152600401808373ffffffffffffffffffffffffffffffffffffffff16815260200182815260200192505050602060405180830381600087803b1580156101b257600080fd5b505af11580156101c6573d6000803e3d6000fd5b505050506040513d60208110156101dc57600080fd5b8101908080519060200190929190505050506000600160009054906101000a900473ffffffffffffffffffffffffffffffffffffffff1673ffffffffffffffffffffffffffffffffffffffff166370a08231306040518263ffffffff1660e01b8152600401808273ffffffffffffffffffffffffffffffffffffffff16815260200191505060206040518083038186803b15801561027957600080fd5b505afa15801561028d573d6000803e3d6000fd5b505050506040513d60208110156102a357600080fd5b8101908080519060200190929190505050111561045757600160009054906101000a900473ffffffffffffffffffffffffffffffffffffffff1673ffffffffffffffffffffffffffffffffffffffff1663a9059cbb336064600160009054906101000a900473ffffffffffffffffffffffffffffffffffffffff1673ffffffffffffffffffffffffffffffffffffffff166370a08231306040518263ffffffff1660e01b8152600401808273ffffffffffffffffffffffffffffffffffffffff16815260200191505060206040518083038186803b15801561038457600080fd5b505afa158015610398573d6000803e3d6000fd5b505050506040513d60208110156103ae57600080fd5b8101908080519060200190929190505050816103c657fe5b046040518363ffffffff1660e01b8152600401808373ffffffffffffffffffffffffffffffffffffffff16815260200182815260200192505050602060405180830381600087803b15801561041a57600080fd5b505af115801561042e573d6000803e3d6000fd5b505050506040513d602081101561044457600080fd5b8101908080519060200190929190505050505b6105f9565b600160009054906101000a900473ffffffffffffffffffffffffffffffffffffffff1673ffffffffffffffffffffffffffffffffffffffff1663a9059cbb336064600160009054906101000a900473ffffffffffffffffffffffffffffffffffffffff1673ffffffffffffffffffffffffffffffffffffffff166370a08231306040518263ffffffff1660e01b8152600401808273ffffffffffffffffffffffffffffffffffffffff16815260200191505060206040518083038186803b15801561052657600080fd5b505afa15801561053a573d6000803e3d6000fd5b505050506040513d602081101561055057600080fd5b81019080805190602001909291905050508161056857fe5b046040518363ffffffff1660e01b8152600401808373ffffffffffffffffffffffffffffffffffffffff16815260200182815260200192505050602060405180830381600087803b1580156105bc57600080fd5b505af11580156105d0573d6000803e3d6000fd5b505050506040513d60208110156105e657600080fd5b8101908080519060200190929190505050505b5050565b60006603287092778e38905092915050565b600033905060008054906101000a900473ffffffffffffffffffffffffffffffffffffffff1673ffffffffffffffffffffffffffffffffffffffff166323b872dd8230856040518463ffffffff1660e01b8152600401808473ffffffffffffffffffffffffffffffffffffffff1681526020018373ffffffffffffffffffffffffffffffffffffffff1681526020018281526020019350505050602060405180830381600087803b1580156106c357600080fd5b505af11580156106d7573d6000803e3d6000fd5b505050506040513d60208110156106ed57600080fd5b81019080805190602001909291905050505050505056fea2646970667358221220c45ac0bf0c3a57789dcec843eab0aba9cdd9f7bc81be7c875cb75a37b79f8f4964736f6c63430007040033",
  "immutableReferences": {},
  "source": "pragma solidity >=0.7.0 <0.8.0;\r\n\r\nimport 'openzeppelin-solidity/contracts/token/ERC20/SafeERC20.sol';\r\n\r\n\r\ncontract ShareRewardPoolMock {\r\n\r\n    using SafeERC20 for IERC20;\r\n\r\n    address lp;\r\n    address share;\r\n\r\n    constructor(address _lp, address _share) {\r\n        lp = _lp;\r\n        share = _share;\r\n    }\r\n\r\n    function deposit(uint256 _pid, uint256 _amount) external {\r\n        address _sender = msg.sender;\r\n        IERC20(lp).transferFrom(_sender, address(this), _amount);\r\n    }\r\n\r\n    // Withdraw LP tokens.\r\n    function withdraw(uint256 _pid, uint256 _amount) external {\r\n        if (_amount > 0) {\r\n            IERC20(lp).transfer(msg.sender, _amount);\r\n            if(IERC20(share).balanceOf(address(this)) > 0) {\r\n                IERC20(share).transfer(msg.sender, IERC20(share).balanceOf(address(this))/100);\r\n            }\r\n        } else {\r\n            IERC20(share).transfer(msg.sender, IERC20(share).balanceOf(address(this))/100);\r\n        }\r\n    }\r\n\r\n        function pendingShare(uint256 _pid, address _user) external view returns (uint256){\r\n            return 888888888888888;\r\n        }\r\n}",
  "sourcePath": "E:/_dev/solidity/HelloOptimizer/contracts/mocks/ShareRewardPoolMock.sol",
  "compiler": {
    "name": "solc",
    "version": "0.7.4+commit.3f05b770.Emscripten.clang"
  },
  "schemaVersion": "3.3.4",
  "updatedAt": "2021-04-02T09:48:07.137Z",
  "networkType": "ethereum",
  "devdoc": {
    "kind": "dev",
    "methods": {},
    "version": 1
  },
  "userdoc": {
    "kind": "user",
    "methods": {},
    "version": 1
  }
}